{
  "address": "0x48007bd1C17649F53D9D13ad57E8dDCd958135Dd",
  "abi": [
    {
      "inputs": [
        {
          "internalType": "address",
          "name": "_dataFeed",
          "type": "address"
        },
        {
          "internalType": "address",
          "name": "_verifier",
          "type": "address"
        }
      ],
      "stateMutability": "nonpayable",
      "type": "constructor"
    },
    {
      "inputs": [],
      "name": "PRICE_PROOF_ONCHAIN",
      "outputs": [
        {
          "internalType": "uint256",
          "name": "",
          "type": "uint256"
        }
      ],
      "stateMutability": "view",
      "type": "function"
    },
    {
      "inputs": [],
      "name": "calculateRequiredETH",
      "outputs": [
        {
          "internalType": "uint256",
          "name": "",
          "type": "uint256"
        }
      ],
      "stateMutability": "view",
      "type": "function"
    },
    {
      "inputs": [
        {
          "internalType": "address",
          "name": "_newOwner",
          "type": "address"
        }
      ],
      "name": "changeOwner",
      "outputs": [],
      "stateMutability": "nonpayable",
      "type": "function"
    },
    {
      "inputs": [],
      "name": "getChainlinkDataFeedLatestAnswer",
      "outputs": [
        {
          "internalType": "int256",
          "name": "",
          "type": "int256"
        }
      ],
      "stateMutability": "view",
      "type": "function"
    },
    {
      "inputs": [
        {
          "internalType": "uint256[1]",
          "name": "pubSignals",
          "type": "uint256[1]"
        }
      ],
      "name": "isProofNullified",
      "outputs": [
        {
          "internalType": "bool",
          "name": "",
          "type": "bool"
        }
      ],
      "stateMutability": "view",
      "type": "function"
    },
    {
      "inputs": [],
      "name": "owner",
      "outputs": [
        {
          "internalType": "address",
          "name": "",
          "type": "address"
        }
      ],
      "stateMutability": "view",
      "type": "function"
    },
    {
      "inputs": [
        {
          "internalType": "uint256",
          "name": "",
          "type": "uint256"
        }
      ],
      "name": "s_nullifierHash",
      "outputs": [
        {
          "internalType": "bool",
          "name": "",
          "type": "bool"
        }
      ],
      "stateMutability": "view",
      "type": "function"
    },
    {
      "inputs": [
        {
          "internalType": "uint256[1]",
          "name": "pubSignals",
          "type": "uint256[1]"
        }
      ],
      "name": "undoNullified",
      "outputs": [],
      "stateMutability": "nonpayable",
      "type": "function"
    },
    {
      "inputs": [
        {
          "internalType": "address",
          "name": "_verifier",
          "type": "address"
        }
      ],
      "name": "updateVerifier",
      "outputs": [],
      "stateMutability": "nonpayable",
      "type": "function"
    },
    {
      "inputs": [
        {
          "components": [
            {
              "internalType": "uint256[2]",
              "name": "a",
              "type": "uint256[2]"
            },
            {
              "internalType": "uint256[2][2]",
              "name": "b",
              "type": "uint256[2][2]"
            },
            {
              "internalType": "uint256[2]",
              "name": "c",
              "type": "uint256[2]"
            }
          ],
          "internalType": "struct BeTrusty.Proof",
          "name": "proof",
          "type": "tuple"
        },
        {
          "internalType": "uint256[1]",
          "name": "pubSignals",
          "type": "uint256[1]"
        }
      ],
      "name": "verifyAndRegisterBeTrusty",
      "outputs": [],
      "stateMutability": "payable",
      "type": "function"
    },
    {
      "inputs": [
        {
          "components": [
            {
              "internalType": "uint256[2]",
              "name": "a",
              "type": "uint256[2]"
            },
            {
              "internalType": "uint256[2][2]",
              "name": "b",
              "type": "uint256[2][2]"
            },
            {
              "internalType": "uint256[2]",
              "name": "c",
              "type": "uint256[2]"
            }
          ],
          "internalType": "struct BeTrusty.Proof",
          "name": "proof",
          "type": "tuple"
        },
        {
          "internalType": "uint256[1]",
          "name": "pubSignals",
          "type": "uint256[1]"
        }
      ],
      "name": "verifyBeTrusty",
      "outputs": [
        {
          "internalType": "bool",
          "name": "",
          "type": "bool"
        }
      ],
      "stateMutability": "view",
      "type": "function"
    },
    {
      "inputs": [
        {
          "internalType": "uint256",
          "name": "_wei",
          "type": "uint256"
        }
      ],
      "name": "weiToUsd",
      "outputs": [
        {
          "internalType": "uint256",
          "name": "",
          "type": "uint256"
        }
      ],
      "stateMutability": "view",
      "type": "function"
    }
  ],
  "transactionHash": "0xd3bfa53dff9d9996704062271d828dec73c0fda8c6a7632dd632bea69cf2aa68",
  "args": [
    "0x59F1ec1f10bD7eD9B938431086bC1D9e233ECf41",
    "0x59F1ec1f10bD7eD9B938431086bC1D9e233ECf41"
  ],
  "numDeployments": 1,
  "solcInputHash": "7a74c09cb2edfda31f727891adaf9c41",
  "bytecode": "0x60a06040526801158e460913d000006080908152503480156200002157600080fd5b50604051620019413803806200194183398181016040528101906200004791906200017b565b816000806101000a81548173ffffffffffffffffffffffffffffffffffffffff021916908373ffffffffffffffffffffffffffffffffffffffff16021790555080600160006101000a81548173ffffffffffffffffffffffffffffffffffffffff021916908373ffffffffffffffffffffffffffffffffffffffff16021790555033600260006101000a81548173ffffffffffffffffffffffffffffffffffffffff021916908373ffffffffffffffffffffffffffffffffffffffff1602179055505050620001c2565b600080fd5b600073ffffffffffffffffffffffffffffffffffffffff82169050919050565b6000620001438262000116565b9050919050565b620001558162000136565b81146200016157600080fd5b50565b60008151905062000175816200014a565b92915050565b6000806040838503121562000195576200019462000111565b5b6000620001a58582860162000164565b9250506020620001b88582860162000164565b9150509250929050565b60805161175c620001e5600039600081816103270152610494015261175c6000f3fe6080604052600436106100a75760003560e01c80638c5bf909116100645780638c5bf909146101e25780638c733fdf146101fe5780638da5cb5b1461023b57806397fc007c14610266578063a6f9dae11461028f578063bea4dfb5146102b8576100a7565b8063136c5165146100ac5780632506e128146100e957806348fa170d146101145780636de149ec146101515780637d8f2f681461018e57806382197af3146101b9575b600080fd5b3480156100b857600080fd5b506100d360048036038101906100ce9190610c11565b6102e3565b6040516100e09190610c59565b60405180910390f35b3480156100f557600080fd5b506100fe610325565b60405161010b9190610c83565b60405180910390f35b34801561012057600080fd5b5061013b60048036038101906101369190610e6a565b610349565b6040516101489190610c59565b60405180910390f35b34801561015d57600080fd5b5061017860048036038101906101739190610eac565b610401565b6040516101859190610c59565b60405180910390f35b34801561019a57600080fd5b506101a3610421565b6040516101b09190610c83565b60405180910390f35b3480156101c557600080fd5b506101e060048036038101906101db9190610c11565b6104d2565b005b6101fc60048036038101906101f79190610e6a565b6105a9565b005b34801561020a57600080fd5b5061022560048036038101906102209190610eac565b6107a1565b6040516102329190610c83565b60405180910390f35b34801561024757600080fd5b506102506107d0565b60405161025d9190610f1a565b60405180910390f35b34801561027257600080fd5b5061028d60048036038101906102889190610f61565b6107f6565b005b34801561029b57600080fd5b506102b660048036038101906102b19190610f61565b6108ca565b005b3480156102c457600080fd5b506102cd61099e565b6040516102da9190610fa7565b60405180910390f35b600060036000836000600181106102fd576102fc610fc2565b5b6020020151815260200190815260200160002060009054906101000a900460ff169050919050565b7f000000000000000000000000000000000000000000000000000000000000000081565b6000600160009054906101000a900473ffffffffffffffffffffffffffffffffffffffff1673ffffffffffffffffffffffffffffffffffffffff166343753b4d846000015185602001518660400151866040518563ffffffff1660e01b81526004016103b8949392919061121e565b602060405180830381865afa1580156103d5573d6000803e3d6000fd5b505050506040513d601f19601f820116820180604052508101906103f99190611291565b905092915050565b60036020528060005260406000206000915054906101000a900460ff1681565b60008061042c61099e565b905060008113610471576040517f08c379a00000000000000000000000000000000000000000000000000000000081526004016104689061131b565b60405180910390fd5b60006402540be40082610484919061136a565b9050600081670de0b6b3a76400007f00000000000000000000000000000000000000000000000000000000000000006104bd919061136a565b6104c791906113db565b905080935050505090565b600260009054906101000a900473ffffffffffffffffffffffffffffffffffffffff1673ffffffffffffffffffffffffffffffffffffffff163373ffffffffffffffffffffffffffffffffffffffff1614610562576040517f08c379a000000000000000000000000000000000000000000000000000000000815260040161055990611458565b60405180910390fd5b6000600360008360006001811061057c5761057b610fc2565b5b6020020151815260200190815260200160002060006101000a81548160ff02191690831515021790555050565b60036000826000600181106105c1576105c0610fc2565b5b6020020151815260200190815260200160002060009054906101000a900460ff1615610622576040517f08c379a0000000000000000000000000000000000000000000000000000000008152600401610619906114c4565b60405180910390fd5b61062a610421565b34101561066c576040517f08c379a000000000000000000000000000000000000000000000000000000000815260040161066390611530565b60405180910390fd5b600160009054906101000a900473ffffffffffffffffffffffffffffffffffffffff1673ffffffffffffffffffffffffffffffffffffffff166343753b4d836000015184602001518560400151856040518563ffffffff1660e01b81526004016106d9949392919061121e565b602060405180830381865afa1580156106f6573d6000803e3d6000fd5b505050506040513d601f19601f8201168201806040525081019061071a9190611291565b610759576040517f08c379a00000000000000000000000000000000000000000000000000000000081526004016107509061159c565b60405180910390fd5b6001600360008360006001811061077357610772610fc2565b5b6020020151815260200190815260200160002060006101000a81548160ff0219169083151502179055505050565b6000670de0b6b3a76400006107b461099e565b836107bf919061136a565b6107c991906113db565b9050919050565b600260009054906101000a900473ffffffffffffffffffffffffffffffffffffffff1681565b600260009054906101000a900473ffffffffffffffffffffffffffffffffffffffff1673ffffffffffffffffffffffffffffffffffffffff163373ffffffffffffffffffffffffffffffffffffffff1614610886576040517f08c379a000000000000000000000000000000000000000000000000000000000815260040161087d90611458565b60405180910390fd5b80600160006101000a81548173ffffffffffffffffffffffffffffffffffffffff021916908373ffffffffffffffffffffffffffffffffffffffff16021790555050565b600260009054906101000a900473ffffffffffffffffffffffffffffffffffffffff1673ffffffffffffffffffffffffffffffffffffffff163373ffffffffffffffffffffffffffffffffffffffff161461095a576040517f08c379a000000000000000000000000000000000000000000000000000000000815260040161095190611458565b60405180910390fd5b80600260006101000a81548173ffffffffffffffffffffffffffffffffffffffff021916908373ffffffffffffffffffffffffffffffffffffffff16021790555050565b60008060008060009054906101000a900473ffffffffffffffffffffffffffffffffffffffff1673ffffffffffffffffffffffffffffffffffffffff1663feaf968c6040518163ffffffff1660e01b815260040160a060405180830381865afa158015610a0f573d6000803e3d6000fd5b505050506040513d601f19601f82011682018060405250810190610a33919061163f565b5093505092505060008111610a7d576040517f08c379a0000000000000000000000000000000000000000000000000000000008152600401610a7490611706565b60405180910390fd5b819250505090565b6000604051905090565b600080fd5b600080fd5b6000601f19601f8301169050919050565b7f4e487b7100000000000000000000000000000000000000000000000000000000600052604160045260246000fd5b610ae282610a99565b810181811067ffffffffffffffff82111715610b0157610b00610aaa565b5b80604052505050565b6000610b14610a85565b9050610b208282610ad9565b919050565b600067ffffffffffffffff821115610b4057610b3f610aaa565b5b602082029050919050565b600080fd5b6000819050919050565b610b6381610b50565b8114610b6e57600080fd5b50565b600081359050610b8081610b5a565b92915050565b6000610b99610b9484610b25565b610b0a565b90508060208402830185811115610bb357610bb2610b4b565b5b835b81811015610bdc5780610bc88882610b71565b845260208401935050602081019050610bb5565b5050509392505050565b600082601f830112610bfb57610bfa610a94565b5b6001610c08848285610b86565b91505092915050565b600060208284031215610c2757610c26610a8f565b5b6000610c3584828501610be6565b91505092915050565b60008115159050919050565b610c5381610c3e565b82525050565b6000602082019050610c6e6000830184610c4a565b92915050565b610c7d81610b50565b82525050565b6000602082019050610c986000830184610c74565b92915050565b600080fd5b600067ffffffffffffffff821115610cbe57610cbd610aaa565b5b602082029050919050565b6000610cdc610cd784610ca3565b610b0a565b90508060208402830185811115610cf657610cf5610b4b565b5b835b81811015610d1f5780610d0b8882610b71565b845260208401935050602081019050610cf8565b5050509392505050565b600082601f830112610d3e57610d3d610a94565b5b6002610d4b848285610cc9565b91505092915050565b600067ffffffffffffffff821115610d6f57610d6e610aaa565b5b602082029050919050565b6000610d8d610d8884610d54565b610b0a565b90508060408402830185811115610da757610da6610b4b565b5b835b81811015610dd05780610dbc8882610d29565b845260208401935050604081019050610da9565b5050509392505050565b600082601f830112610def57610dee610a94565b5b6002610dfc848285610d7a565b91505092915050565b60006101008284031215610e1c57610e1b610c9e565b5b610e266060610b0a565b90506000610e3684828501610d29565b6000830152506040610e4a84828501610dda565b60208301525060c0610e5e84828501610d29565b60408301525092915050565b6000806101208385031215610e8257610e81610a8f565b5b6000610e9085828601610e05565b925050610100610ea285828601610be6565b9150509250929050565b600060208284031215610ec257610ec1610a8f565b5b6000610ed084828501610b71565b91505092915050565b600073ffffffffffffffffffffffffffffffffffffffff82169050919050565b6000610f0482610ed9565b9050919050565b610f1481610ef9565b82525050565b6000602082019050610f2f6000830184610f0b565b92915050565b610f3e81610ef9565b8114610f4957600080fd5b50565b600081359050610f5b81610f35565b92915050565b600060208284031215610f7757610f76610a8f565b5b6000610f8584828501610f4c565b91505092915050565b6000819050919050565b610fa181610f8e565b82525050565b6000602082019050610fbc6000830184610f98565b92915050565b7f4e487b7100000000000000000000000000000000000000000000000000000000600052603260045260246000fd5b600060029050919050565b600081905092915050565b6000819050919050565b61101a81610b50565b82525050565b600061102c8383611011565b60208301905092915050565b6000602082019050919050565b61104e81610ff1565b6110588184610ffc565b925061106382611007565b8060005b8381101561109457815161107b8782611020565b965061108683611038565b925050600181019050611067565b505050505050565b600060029050919050565b600081905092915050565b6000819050919050565b600081905092915050565b6110d081610ff1565b6110da81846110bc565b92506110e582611007565b8060005b838110156111165781516110fd8782611020565b965061110883611038565b9250506001810190506110e9565b505050505050565b600061112a83836110c7565b60408301905092915050565b6000602082019050919050565b61114c8161109c565b61115681846110a7565b9250611161826110b2565b8060005b83811015611192578151611179878261111e565b965061118483611136565b925050600181019050611165565b505050505050565b600060019050919050565b600081905092915050565b6000819050919050565b6000602082019050919050565b6111d08161119a565b6111da81846111a5565b92506111e5826111b0565b8060005b838110156112165781516111fd8782611020565b9650611208836111ba565b9250506001810190506111e9565b505050505050565b6000610120820190506112346000830187611045565b6112416040830186611143565b61124e60c0830185611045565b61125c6101008301846111c7565b95945050505050565b61126e81610c3e565b811461127957600080fd5b50565b60008151905061128b81611265565b92915050565b6000602082840312156112a7576112a6610a8f565b5b60006112b58482850161127c565b91505092915050565b600082825260208201905092915050565b7f496e76616c696420707269636500000000000000000000000000000000000000600082015250565b6000611305600d836112be565b9150611310826112cf565b602082019050919050565b60006020820190508181036000830152611334816112f8565b9050919050565b7f4e487b7100000000000000000000000000000000000000000000000000000000600052601160045260246000fd5b600061137582610b50565b915061138083610b50565b925082820261138e81610b50565b915082820484148315176113a5576113a461133b565b5b5092915050565b7f4e487b7100000000000000000000000000000000000000000000000000000000600052601260045260246000fd5b60006113e682610b50565b91506113f183610b50565b925082611401576114006113ac565b5b828204905092915050565b7f4f6e6c79206f776e657200000000000000000000000000000000000000000000600082015250565b6000611442600a836112be565b915061144d8261140c565b602082019050919050565b6000602082019050818103600083015261147181611435565b9050919050565b7f416c7265616479206e756c6c6966696564210000000000000000000000000000600082015250565b60006114ae6012836112be565b91506114b982611478565b602082019050919050565b600060208201905081810360008301526114dd816114a1565b9050919050565b7f496e73756666696369656e74204554482073656e740000000000000000000000600082015250565b600061151a6015836112be565b9150611525826114e4565b602082019050919050565b600060208201905081810360008301526115498161150d565b9050919050565b7f50726f6f6620696e76616c696400000000000000000000000000000000000000600082015250565b6000611586600d836112be565b915061159182611550565b602082019050919050565b600060208201905081810360008301526115b581611579565b9050919050565b600069ffffffffffffffffffff82169050919050565b6115db816115bc565b81146115e657600080fd5b50565b6000815190506115f8816115d2565b92915050565b61160781610f8e565b811461161257600080fd5b50565b600081519050611624816115fe565b92915050565b60008151905061163981610b5a565b92915050565b600080600080600060a0868803121561165b5761165a610a8f565b5b6000611669888289016115e9565b955050602061167a88828901611615565b945050604061168b8882890161162a565b935050606061169c8882890161162a565b92505060806116ad888289016115e9565b9150509295509295909350565b7f526f756e6420686173206e6f7420656e64656400000000000000000000000000600082015250565b60006116f06013836112be565b91506116fb826116ba565b602082019050919050565b6000602082019050818103600083015261171f816116e3565b905091905056fea26469706673582212204907d882428238cf6b303d474c031e4c7262ff733605595847992eab5b13bfbb64736f6c63430008180033",
  "devdoc": {
    "kind": "dev",
    "methods": {},
    "version": 1
  },
  "userdoc": {
    "kind": "user",
    "methods": {},
    "version": 1
  },
  "storageLayout": {
    "storage": [
      {
        "astId": 53,
        "contract": "contracts/BeTrusty.sol:BeTrusty",
        "label": "dataFeed",
        "offset": 0,
        "slot": "0",
        "type": "t_contract(AggregatorV3Interface)45"
      },
      {
        "astId": 56,
        "contract": "contracts/BeTrusty.sol:BeTrusty",
        "label": "verifier",
        "offset": 0,
        "slot": "1",
        "type": "t_contract(Verifier)438"
      },
      {
        "astId": 61,
        "contract": "contracts/BeTrusty.sol:BeTrusty",
        "label": "owner",
        "offset": 0,
        "slot": "2",
        "type": "t_address"
      },
      {
        "astId": 65,
        "contract": "contracts/BeTrusty.sol:BeTrusty",
        "label": "s_nullifierHash",
        "offset": 0,
        "slot": "3",
        "type": "t_mapping(t_uint256,t_bool)"
      }
    ],
    "types": {
      "t_address": {
        "encoding": "inplace",
        "label": "address",
        "numberOfBytes": "20"
      },
      "t_bool": {
        "encoding": "inplace",
        "label": "bool",
        "numberOfBytes": "1"
      },
      "t_contract(AggregatorV3Interface)45": {
        "encoding": "inplace",
        "label": "contract AggregatorV3Interface",
        "numberOfBytes": "20"
      },
      "t_contract(Verifier)438": {
        "encoding": "inplace",
        "label": "contract Verifier",
        "numberOfBytes": "20"
      },
      "t_mapping(t_uint256,t_bool)": {
        "encoding": "mapping",
        "key": "t_uint256",
        "label": "mapping(uint256 => bool)",
        "numberOfBytes": "32",
        "value": "t_bool"
      },
      "t_uint256": {
        "encoding": "inplace",
        "label": "uint256",
        "numberOfBytes": "32"
      }
    }
  }
}